:100000000C9434000C9451000C9451000C94510049
:100010000C9451000C9451000C9451000C9451001C
:100020000C9451000C9451000C9451000C9453000A
:100030000C9451000C9451000C9451000C945100FC
:100040000C9451000C9451000C9451000C945100EC
:100050000C9451000C9451000C9451000C945100DC
:100060000C9451000C94510011241FBECFEFD8E026
:10007000DEBFCDBF11E0A0E0B1E0EAE9F2E002C0EE
:1000800005900D92A033B107D9F721E0A0E3B1E0CC
:1000900001C01D92A236B207E1F70E94DF000C9466
:1000A0004B010C9400001F920F920FB60F92112477
:1000B0002F933F935F936F937F938F939F93AF9310
:1000C000BF93EF93FF935A9A8091600190916101E1
:1000D000079626E030E0B9010E942301FC0183E08D
:1000E000EE0FFF1F8A95E1F7E050FF4F808187BD3B
:1000F00080916001909161010796B9010E942301EE
:10010000FC0193E0EE0FFF1F9A95E1F7E050FF4FDF
:10011000828188BD80916001909161010796B9014B
:100120000E942301FC0153E0EE0FFF1F5A95E1F7F7
:10013000E050FF4F84818093B300809160019091E3
:1001400061010796B9010E942301FC0163E0EE0FF3
:10015000FF1F6A95E1F7E050FF4F86818093B4005E
:100160008091600190916101892B09F55C9A5F9AF9
:100170005F98589A58985A988091600190916101BF
:1001800085309105B1F41092610110926001FF91E8
:10019000EF91BF91AF919F918F917F916F915F91FF
:1001A0003F912F910F900FBE0F901F9018955C9864
:1001B000DECF01969093610180936001E8CFF894BF
:1001C00023EF24BD92E095BD8091000187BD809111
:1001D000020188BD81E8809380008AE080938100DD
:1001E000109289001092880080916F008260809345
:1001F0006F002093B0009093B10080910401809330
:10020000B300809106018093B40080E883BD83B57C
:10021000836083BD16BC10928500109284001092FA
:10022000B20083B58F7783BD8091C1008F7E8093AC
:10023000C1008AB188668AB9239A8AB185698AB968
:1002400078940000FECF97FB072E16F4009407D099
:1002500077FD09D00E94370107FC05D03EF4909548
:1002600081959F4F0895709561957F4F0895AA1BC2
:10027000BB1B51E107C0AA1FBB1FA617B70710F091
:10028000A61BB70B881F991F5A95A9F780959095C3
:0A029000BC01CD010895F894FFCFE2
:10029A001900FF00FF00FF00FF001900FF00FF0028
:1002AA00FF00FF001900FF00FF00FF00FF00190018
:1002BA001900FF00C800FF001900C800FF00FF0076
:00000001FF
