:100000000C9434000C9451000C9451000C94510049
:100010000C9451000C9451000C9451000C9451001C
:100020000C9451000C9451000C9451000C9453000A
:100030000C9451000C9451000C9451000C945100FC
:100040000C9451000C9451000C9451000C945100EC
:100050000C9451000C9451000C9451000C945100DC
:100060000C9451000C94510011241FBECFEFD8E026
:10007000DEBFCDBF12E0A0E0B1E0E0EBF4E002C0F3
:1000800005900D92A033B107D9F722E0A0E3B2E0CA
:1000900001C01D92A236B207E1F70E946D010C94D7
:1000A00056020C9400001F920F920FB60F9211246B
:1000B0002F933F935F936F937F938F939F93AF9310
:1000C000BF93EF93FF935A9A8091600290916102DF
:1000D000079626E030E0B9010E942E02FC0183E081
:1000E000EE0FFF1F8A95E1F7E050FF4F808187BD3B
:1000F00080916002909161020796B9010E942E02E0
:10010000FC0193E0EE0FFF1F9A95E1F7E050FF4FDF
:10011000828188BD80916002909161020796B90149
:100120000E942E02FC0153E0EE0FFF1F5A95E1F7EB
:10013000E050FF4F84818093B300809160029091E2
:1001400061020796B9010E942E02FC0163E0EE0FE6
:10015000FF1F6A95E1F7E050FF4F86818093B4005E
:100160008091600290916102892B09F55C9A5F9AF7
:100170005F98589A58985A988091600290916102BD
:1001800085309105B1F41092610210926002FF91E6
:10019000EF91BF91AF919F918F917F916F915F91FF
:1001A0003F912F910F900FBE0F901F9018955C9864
:1001B000DECF01969093610280936002E8CF30E039
:1001C00020E0281739070CF0089544E650E00000BD
:1001D0000000000000000000000000004150510934
:1001E000B1F72F5F3F4FEDCFCF93DF9323E0880F21
:1001F000991F2A95E1F7DC01A050BF4FFC01E05D9B
:10020000FD4FC081D181C05DDE4F888190E01196A5
:100210009C938E93C281D381C05DDE4F888190E034
:1002200013969C938E931297C481D581C05DDE4F47
:10023000888190E015969C938E9314970680F781A1
:10024000E02DE05DFE4F808190E017969C938E93A9
:100250001697DF91CF910895CF93DF93FC01EB01C7
:10026000DA01208131818881998121153105D9F404
:10027000892B71F08D919C91119701968D939C9390
:1002800088819981019799838883DF91CF9108951F
:1002900081E090E0918380838D919C9111970197EB
:1002A0008D939C93F2CF4D915C911197009789F4B7
:1002B000452B29F02F5F3F4F31832083EDCF81E025
:1002C00090E09983888380819181019791838083D5
:1002D000DCCF452BD1F60196F4CFF89423EF24BD63
:1002E00092E095BD8091000187BD8091020188BD9B
:1002F00081E8809380008AE08093810010928900D9
:100300001092880080916F00826080936F0020932C
:10031000B0009093B100809104018093B30080916C
:1003200006018093B40080E883BD83B5836083BDFC
:1003300016BC10928500109284001092B20083B512
:100340008F7783BD8091C1008F7E8093C1008AB179
:1003500088668AB9239A8AB185698AB9259A2D98BF
:100360001092610210926002789410923102109201
:1003700030028FEF90E0909333028093320210921C
:1003800035021092340210923902109238028FE92D
:1003900090E090933B0280933A0280E690E0909345
:1003A0003D0280933C0210924102109240028FE382
:1003B00090E0909343028093420280EC90E090930F
:1003C0004502809344028FE190E09093490280932C
:1003D000480210924B0210924A0280EE90E09093F5
:1003E0004D0280934C028FE790E0909351028093EE
:1003F0005002109253021092520280E890E09093C3
:100400005502809354028FED90E0909359028093AF
:10041000580210925B0210925A0280E290E0909390
:100420005D0280935C02C0E3D2E010E000E0AE0128
:100430004C5F5F4FBE016E5F7F4FCE010E942C016B
:10044000C8010E94F4000F5F1F4F28960630110567
:1004500071F78EE190E00E94DF00E5CF97FB072E59
:1004600016F4009407D077FD09D00E94420207FCE1
:1004700005D03EF4909581959F4F089570956195B4
:100480007F4F0895AA1BBB1B51E107C0AA1FBB1FCA
:10049000A617B70710F0A61BB70B881F991F5A9510
:1004A000A9F780959095BC01CD010895F894FFCFF0
:1004B000FF00FF00FF00FF00FF00FF00FF00FF0044
:1004C000FF00FF00FF00FF00FF00FF00FF00FF0034
:1004D000FF00FF00FF00FF00FF00FF00FF00FF0024
:1004E000FFFFFFFFFFFEFEFEFEFEFDFDFDFCFCFC30
:1004F000FCFBFBFAFAFAF9F9F9F8F8F7F7F6F6F671
:10050000F5F5F4F4F3F3F2F2F1F1F0F0EFEFEEEDD4
:10051000EDECECEBEBEAE9E9E8E8E7E6E6E5E4E454
:10052000E3E2E2E1E0E0DFDEDEDDDCDCDBDAD9D9EC
:10053000D8D7D7D6D5D4D4D3D2D1D0D0CFCECDCD95
:10054000CCCBCAC9C8C8C7C6C5C4C3C3C2C1C0BF53
:10055000BEBEBDBCBBBAB9B8B7B6B6B5B4B3B2B11E
:10056000B0AFAEADACABAAA9A9A8A7A6A5A4A3A2FB
:10057000A1A09F9E9D9C9B9A9998979695949392E3
:1005800091908F8E8C8B8A898887868584838281DF
:10059000807F7E7C7B7A7978777675747271706FE4
:1005A0006E6D6C6B6968676665646261605F5E5DF5
:1005B0005B5A59585755545352514F4E4D4C4B4915
:1005C00048474645434241403E3D3C3B393837363B
:1005D000343332302F2E2D2B2A2927262524222171
:00000001FF
